:020000040800F2
:10000000D00400209D01000813120008BB11000855
:1000100011120008FD030008491400080000000048
:10002000000000000000000000000000171200089F
:10003000FF03000800000000151200081912000854
:10004000B7010008B7010008B7010008B7010008B0
:10005000B7010008B7010008B7010008B7010008A0
:10006000B7010008B7010008B7010008B701000890
:10007000B7010008B7010008B7010008B701000880
:10008000B7010008B7010008B7010008B701000870
:10009000B7010008B7010008B7010008B701000860
:1000A000B7010008B7010008B7010008B701000850
:1000B000B7010008B7010008B7010008B701000840
:1000C000B7010008B7010008B7010008B701000830
:1000D000B7010008B7010008B7010008B701000820
:1000E000B7010008B7010008B7010008B701000810
:1000F000B7010008B7010008B7010008B701000800
:10010000B7010008B7010008B7010008B7010008EF
:10011000B7010008B7010008B7010008B7010008DF
:10012000B7010008B7010008B7010008B7010008CF
:10013000B7010008B7010008B7010008B7010008BF
:10014000B7010008B7010008B7010008B7010008AF
:10015000B7010008B7010008B7010008B70100089F
:10016000B7010008B7010008B7010008B70100088F
:10017000B7010008B7010008B7010008000000003F
:10018000B7010008B7010008DFF80CD000F090F8C4
:100190000048004701180008D004002006488047A6
:1001A00006480047FEE7FEE7FEE7FEE7FEE7FEE75C
:1001B000FEE7FEE7FEE7FEE7A1120008890100085E
:1001C0002DE9F05F0546002092469B46884606468C
:1001D000814640241BE0284641464746224600F01F
:1001E00057F853465A46C01A914110D31146184643
:1001F000224600F03EF82D1A67EB01084F462246D2
:100200000120002100F035F817EB00094E41201EB7
:10021000A4F10104DFDC484631462A464346BDE8E6
:10022000F09FD2B201E000F8012B491EFBD27047CB
:100230000022F6E710B513460A4604461946FFF7B2
:10024000F0FF204610BD30B50B46014600202022AD
:10025000012409E021FA02F59D4205D303FA02F5D3
:10026000491B04FA02F52844151EA2F10102F1DC33
:1002700030BD202A04DB203A00FA02F1002070474A
:100280009140C2F1200320FA03F3194390407047D4
:10029000202A04DB203A21FA02F00021704721FADB
:1002A00002F3D040C2F12002914008431946704742
:1002B000064C074D06E0E06840F0010394E80700B3
:1002C00098471034AC42F6D3FFF762FFE0180008FD
:1002D00000190008464910B54A6822F440324A60C5
:1002E0004A6843681A434A6001684A6822F4807287
:1002F0004A6001684A68036942EA03224A60016869
:100300004A6822F040724A6001684A6883681A436A
:100310004A6001688A6822F400628A6001688A681B
:10032000C3681A438A60816A6FF07062D1420168C3
:100330008A6822F070628A6001688A680CD0836AD9
:100340001A438A6001688A6822F040528A60016814
:100350008A68C36A1A4301E022F040528A60016849
:100360008A6822F002028A6001688A68037E42EA93
:1003700043028A6090F82010002901684A680FD073
:1003800042F400624A6001684A6822F460424A60AE
:1003900001684A68174C436A04EB43331A4301E08F
:1003A00022F400624A600168CA6A22F47002CA62DA
:1003B0000168CA6A838B104C04EB03531A43CA6268
:1003C00001688A6822F400728A6001688A6890F87D
:1003D000303042EA43228A6001688A6822F48062EF
:1003E0008A6001688A68406942EA8020886010BD9E
:1003F0000023014000E0FFFF0000F0FFFEE7704730
:1004000078B50024009490F83C20012A19D00122EC
:1004100080F83C200A6807230568092A13D9EE688A
:100420000A3A02EB420293409E43EE600B788A68E0
:100430000A3B03EB43039A400368DD682A43DA6012
:1004400010E0022078BD2E6902EB420293409E43E9
:100450002E610B788A6803EB43039A4003681D6999
:100460002A431A614A681F23072A13D205686E6B54
:10047000521E02EB820293409E436E630B790A8800
:100480005B1E92B203EB83039A4003685D6B2A43C1
:100490005A6327E005680D2A12D22E6BD21F02EB99
:1004A000820293409E432E630B790A88DB1F92B22F
:1004B00003EB83039A4003681D6B2A431A6311E020
:1004C000EE6A0D3A02EB820293409E43EE620B7994
:1004D0000A880D3B92B203EB83039A400368DD6AFE
:1004E0002A43DA62164B0568144A9D4206D10D680C
:1004F000122D03D1556845F48005556005689D426D
:1005000018D10B68102B01D0112B13D1536843F471
:1005100000035360096810290CD10A490A4A096886
:10052000B1FBF2F101EB8101490000E0491E0091AD
:100530000029FBD180F83C40002078BD0023014019
:10054000002001401000002040420F000068C06CF5
:10055000704770B504004FF0000503D0206C0026F2
:1005600010B107E0012070BD204600F01DF8666460
:1005700084F83C60206CC00610D4206C20F48850B5
:1005800040F0020020642046FFF7A4FE6664206C61
:1005900020F0020040F00100206400E0012584F812
:1005A0003C60284670BD000010B586B0044614219A
:1005B0006846FFF73DFE1149206888421CD110486B
:1005C0000021026842F480720260006800F48070CA
:1005D00005900B481438026842F00102026000687E
:1005E00000F001000590012000900320CDE90101F9
:1005F0006946044800F000F906B010BD0020014033
:1006000044380240000002402DE9F04104460068F1
:100610000D4681684FF0000749050BD58068C0057D
:1006200008D5206C40F02000206484F83C70012044
:10063000BDE8F08100F0BCF906460FE0681C0DD063
:1006400025B100F0B5F9801BA84207D9206C40F015
:100650000400206484F83C700320E9E72068006807
:100660008007EBD521686FF012000860206C40F421
:10067000007020642068816811F0405F13D1217EF2
:1006800089B9C16A11F4700F02D0806840050AD49C
:10069000206C20F480702064206CC00403D4206C93
:1006A00040F0010020640020C2E7000018B50021DE
:1006B000009190F83C20012A07D0012280F83C20CC
:1006C00002689368DB0702D011E0022018BD93682E
:1006D00043F0010393602A4A2A4B1268B2FBF3F2FB
:1006E00002EB420200E0521E0092002AFBD1026897
:1006F0009368DB0741D0036C40F20164A34343F4E9
:100700008073036453685B0505D5036C23F40053C1
:1007100043F480530364036CDB0404D5436C23F07F
:100720000603436400E0416480F83C1016496FF012
:100730002203136049680068CA06144906D088423B
:100740001BD1816811F0405F13D016E08842F8D0C9
:100750000F4A904203D1D1F80423D206F1D00D4ABA
:1007600090420AD1D1F8041301F01F011029E8D3F7
:1007700003E0816841F080418160002018BD0000E5
:100780001000002040420F000023014000200140E3
:10079000002101400022014090F83C1001290CD0BA
:1007A000012180F83C1001688A6822F001028A6009
:1007B00001688968C90702D007E002207047016C10
:1007C00021F4885141F001010164002180F83C10BE
:1007D0000846704770B5044600F0EAF80546601C0C
:1007E00002D004480078044400F0E2F8401BA04224
:1007F000FAD370BD040000202DE9F84F00224FF01D
:10080000010803254FF00F0E0B6808FA02F423408D
:10081000A3426ED14E68012E05D0022E03D0112EB8
:1008200001D0122E12D186684FEA420C05FA0CF75D
:10083000BE43CF6807FA0CF7374387604668A64384
:100840000C79C4F30014944034434460C6685700E4
:1008500005FA07FC8C6826EA0C06BC403443C460E9
:100860004C68022C01D0122C13D1D40800EB840464
:10087000A346D4F8209054074FEAD46A0EFA0AF639
:1008800029EA06090E6906FA0AF646EA0906CBF8CD
:10089000206006680C7926EA0C0604F00304BC40CC
:1008A000344304604C68E40065D5364C266846F451
:1008B00080462660246822F0030604F480440094F5
:1008C000314C3444A446D4F808489607370F0EFA42
:1008D00007F6B4432D4EB04201D1002624E02C4E41
:1008E000B04201D101261FE02A4EB04202D10226B9
:1008F0001AE040E0284EB04201D1032614E0274E12
:10090000B04201D104260FE0254EB04201D10526A8
:100910000AE0244EB04201D1062605E0224EB04244
:1009200001D1072600E00826BE402643CCF808681F
:100930001E4E34684F689C43FF0300D51C4334604F
:100940001A4C241D26684F689E43BF0300D51E43E2
:100950002660164E083634684F689C43FF0200D567
:100960001C433460114E0C3634684F689C43BF0200
:1009700000D51C433460521C102AFFF445AFBDE87B
:10098000F88F00004438024000300140000002406F
:100990000004024000080240000C02400010024027
:1009A0000014024000180240001C0240003C0140BC
:1009B00001488068704700000400002002488168F8
:1009C0000278114481607047040000200B4810B584
:1009D000016841F400710160016841F480610160C7
:1009E000016841F480710160032000F061F800208B
:1009F00000F006F800F024F8002010BD003C024092
:100A000070B50D4D04464FF47A712878B1FBF0F0C3
:100A10000A490968B1FBF0F000F0F6FA48B9102C69
:100A200007D200222146501E00F022F800206C6000
:100A300070BD012070BD00000400002010000020E7
:100A40000A4808B5016841F480410160006800F47B
:100A5000804000900548001F016841F0805101600E
:100A6000006800F08050009008BD0000443802404B
:100A7000F0B40E4B1B680C46C3F30223C3F1070509
:100A8000042D00D90425191D072901D2002300E0F7
:100A9000DB1E012606FA05F1491E214099409E40C1
:100AA000761E16403143F0BC00F0E4BC0CED00E0D3
:100AB000064900F0070208684FF6FF03184040EAB5
:100AC0000220034A10430860704700000CED00E06C
:100AD0000000FA052DE9F0470E46050065D0DFF865
:100AE0001481D8F80000F7B200F00F00B04207D22E
:100AF00088F80070D8F8000000F00F00B04254D120
:100B000028683D4C810712D5400703D5206840F482
:100B1000E05020602878000703D5206840F460404A
:100B200020602068A96820F0F00008432060287841
:100B3000C0072DD0304968680839012812D0022832
:100B400013D0032811D00968890700292DDA2168FC
:100B500021F0030101432160FFF72AFF814641F2A2
:100B6000883A0EE009688903EFE709688901ECE734
:100B7000FFF71EFFA0EB0901514502D90320BDE894
:100B8000F0872068696800F00C00B0EB810FEFD1AE
:100B9000D8F80010404601F00F01B14207D90770A4
:100BA000006800F00F00B04201D00120E7E728788C
:100BB000400705D52068E96820F4E050084320602C
:100BC0002878000706D52068296920F4604040EAAB
:100BD000C100206000F038F82168084AC1F3031111
:100BE000515CC8400649086006480068FFF708FFE6
:100BF0000020C4E7003C024008380240C818000842
:100C00001000002008000020044805490068096819
:100C1000044AC1F38221515CC84070471000002093
:100C200008380240D81800080448054900680968D7
:100C3000044AC1F34231515CC840704710000020A3
:100C400008380240D8180008154810B5006810F0A0
:100C50000C02144813D01449042A0FD0082A0ED1CC
:100C60000F4C241F2268236802F03F025B0207D565
:100C70002068C0F38810A0FB010106E0084610BD03
:100C80002168C1F38811A1FB00010023FFF798FA46
:100C90002168C1F30141491C4900B0FBF1F010BDCE
:100CA000083802400024F40040787D012DE9F84F17
:100CB00004006ED02078DFF83C93C007A9F104054A
:100CC0004AD009F104000168C1F38101012908D06B
:100CD0000068C0F3810002280AD1D9F80000400260
:100CE00006D52868800337D560680028E1D033E056
:100CF0006068B0F5803F10D0B0F5A02F286810D004
:100D000020F480302860286820F480202860606803
:100D1000A8B1FFF74DFE06460DE0286840F480308C
:100D2000F4E740F480202860F7E700BFFFF740FEBB
:100D3000801B642873D828688003F7D50CE0FFF780
:100D400037FE064605E000BFFFF732FE801B642831
:100D5000F0D828688003F7D42078DFF89C828007D9
:100D60004FF0000A3ED5A348001D016811F00C0F9A
:100D700008D00068C0F3810002280BD1D9F8000028
:100D8000400207D42868800716D5E068012800D102
:100D900012E02BE1E068B8B10120C8F80000FFF7CD
:100DA00007FE064605E000BFFFF702FE801B022893
:100DB000C0D828688007F7D52868216920F0F80096
:100DC00040EAC10028600DE0C8F800A0FFF7F0FD80
:100DD000064604E0FFF7ECFD801B02281FD82868B8
:100DE0008007F7D42078000722D5824E83486169B6
:100DF000703671B101210160FFF7DAFD074604E0AA
:100E0000FFF7D6FDC01B022809D830688007F7D548
:100E10000EE0C0F800A0FFF7CBFD074605E082E03A
:100E2000FFF7C6FDC01B02287DD830688007F7D4C5
:100E30002078400768D5DFF8BCB100270BF13C0BE8
:100E4000DBF80000C0000BD4DBF8001041F080514B
:100E5000CBF80010DBF80000012700F08050009074
:100E6000674E3068C00510D4306840F48070306040
:100E7000FFF79EFD009005E0FFF79AFD0099401AEC
:100E8000022850D83068C005F6D55A4EA0686C3696
:100E900001280FD00528306810D020F00100306004
:100EA000306820F004003060A068B8B1FFF780FD22
:100EB00000900FE0306840F00100F4E740F00400DB
:100EC0003060F7E7FFF774FD0099411A41F288306E
:100ED000814266D830688007F4D50EE0FFF768FDE0
:100EE000009007E0FFF764FD0099411A41F2883055
:100EF000814256D830688007F4D42FB1DBF8001057
:100F000021F08051CBF80010A069C8B33949091D00
:100F10000968C1F3810102294AD00228504607D04E
:100F2000C8F8600000E03CE0FFF742FD04463BE00B
:100F30004746C8F86000FFF73BFD064605E000BFE6
:100F4000FFF736FD801B02282BD828688001F7D4D4
:100F5000D4E907010843A16A2A4A490802EB014182
:100F6000626A41EA8211084394F82C1040EA016158
:100F7000C9F8001001203866FFF71AFD044606E0A4
:100F800036E000BFFFF714FD001B022809D82868CF
:100F90008001F7D52CE000BFFFF70AFD001B0228F7
:100FA00002D90320BDE8F88F28688001F4D41FE03F
:100FB0000128F7D0D9F80000E26900F480019142DD
:100FC00014D1226A00F03F0191420FD147F6C0715F
:100FD000626A0140914209D1A26A00F44031914213
:100FE00004D1E16A00F07060884201D00120D9E7A5
:100FF0000020D7E70438024000004742800E4742F5
:10100000007000400000FFFF10B5401EB0F1807F6F
:1010100001D3012010BD4FF0E02460610F21601763
:1010200000F028FA0020A06107202061002010BDF8
:1010300070B5040004D094F83900002510B106E022
:10104000012070BD84F83850204600F023F8242099
:1010500084F839002068C16821F40051C16020463D
:1010600000F02CF92068016921F4904101612068A9
:10107000416921F02A0141612068C16841F40051B1
:10108000C160E563202084F8390084F83A0000202C
:1010900070BD000010B586B0044614216846FFF705
:1010A000C7F814492068884221D1134800210268FA
:1010B00042F480220260006800F4802005900E480F
:1010C0001038026842F002020260006800F002007C
:1010D00005904FF4406000900220CDE9010103200B
:1010E00003900720049069460448FFF785FB06B08B
:1010F00010BD00000048004040380240000402409B
:101100002DE9F843044690F839001F4616460D466F
:10111000202850D1B5B1AEB194F8380001284AD09A
:10112000012084F838004FF00008C4F83C802120EA
:1011300084F83900FFF73CFCA6848146E68484F8F5
:10114000388026E00120BDE8F883E08C401EE08472
:10115000A0684B46B0F5805F4FF000024FF0800171
:101160002046009703D000F03DF9E8B90DE000F00B
:1011700039F9C8B928882168C0F308004860206997
:1011800008B16D1C05E0AD1C03E0216815F8010BEA
:101190004860E08C0028D8D14B46002240212046F0
:1011A000009700F01FF908B10320CCE7202084F855
:1011B00039000020C7E70220C5E7FEE77FB500241D
:1011C00011480094019402940E4903940160012592
:1011D0004FF480310561C0E90114057680F82040A4
:1011E0000A49C0E90A14C561C46080F8304045610D
:1011F000FFF7AFF9CDE90045694603480294FFF7D0
:10120000FFF87FBD00200140480000200100000FD2
:10121000FEE7704770477047FFF7D0BB30B593B01B
:1012200030216846FFF704F814210CA8FFF700F8F6
:1012300019480025016841F080510160006800F004
:10124000805011901548016841F4804101600068A8
:10125000022400F48040119001200390102004909B
:10126000009406940820CDE90750A820CDE9090490
:1012700004200B906846FFF719FD0CA90F2081E8A8
:1012800031004FF4A0500F90E002109005210CA8FF
:10129000FFF720FC13B030BD403802400070004022
:1012A0000548016841F47001016003494FF0006096
:1012B000803908607047000088ED00E02DE9F041BA
:1012C000044600680169E26821F44051114301615C
:1012D0002169A068E26908436169114308432168F4
:1012E000CA6849F20C639A430243CA6020684169A4
:1012F000A26921F4407111434161E0691927642515
:101300003226B0F5004F354A354920684FF00008C5
:1013100006D0884201D0904236D1FFF785FC35E0F7
:10132000884201D0904202D1FFF77EFC01E0FFF736
:101330006BFC61684A18A0FB070148EB0803FEF745
:101340003FFF0146B0FBF5F00201B1FBF5F06FF095
:101350001803584301EB800006EBC000B0FBF5F02A
:1013600000F0F80002EB4002B1FBF5F0584301EB4E
:10137000800006EBC000B0FBF5F000F0070021682C
:1013800010448860BDE8F081FFF73EFC61688B0F78
:101390008A00A0FB0701FEF713FF0146B0FBF5F042
:1013A0006FF01802504301EB800006EB0010B0FB19
:1013B000F5F000F0F002B1FBF5F002EB0012B1FB2A
:1013C000F5F06FF01803584301EB800006EB0010B6
:1013D000B0FBF5F000F00F00D1E700000014014071
:1013E000001001402DE9F041984617460E4604468C
:1013F000069D1DE0681C1BD02DB1FFF7D9FAA0EBAC
:101400000800A84214D92068C16821F4D071C160D5
:101410002068416921F001014161202084F83900F0
:1014200084F83A00002084F838000320BDE8F081F9
:101430002068006836EA000004D00020B842D9D005
:101440000020F3E70120F9E7FEE700000FB4084BA6
:1014500010B504A902AA039800F02CF8044602A9CA
:10146000002000F0C8F9204610BC5DF814FB000015
:10147000F71700080907090E002804DB00F1E02037
:1014800080F80014704700F00F0000F1E02080F8B1
:10149000141D704702E008C8121F08C1002AFAD1C3
:1014A00070477047002001E001C1121F002AFBD1E4
:1014B000704700002DE9FF4F8BB088460546002697
:1014C00006E025280BD0DDE90D1290476D1C761C37
:1014D00028780028F5D10FB03046BDE8F08F002401
:1014E000A146A2460122AE4900E0044315F8013F9F
:1014F000203B02FA03F00842F7D128782A2810D0BE
:101500006FF02F022878A0F13001092915D809EBD6
:10151000890102EB410144F0020400EB01096D1C5A
:10152000F0E758F8041B5FEA010903D544F40054BE
:10153000C9F1000944F002046D1C28782E2817D147
:1015400015F8010F44F004042A280ED06FF02F0282
:101550002878A0F1300109290AD80AEB8A0102EBA8
:10156000410100EB010A6D1CF2E758F804AB6D1C59
:1015700028786C280FD006DC4C2817D068280DD0AE
:101580006A2814D104E0742810D07A280FD10DE015
:1015900044F400140AE044F4801401E044F44014DC
:1015A0006978814202D104F580146D1C6D1C287885
:1015B000692865D006DC00288DD0632827D06428F0
:1015C00006D15DE06E2808D073282AD0752877D020
:1015D000DDE90D129047761CE0E0C4F302500228CA
:1015E00009D003280DD0D8F8001004280DD00E60C3
:1015F00008F10408D2E0D8F80010F217C1E900623F
:10160000F6E7D8F800100E80F2E70E70F0E718F851
:10161000041B8DF8001000208DF80100EB4601201E
:1016200003E058F804BB4FF0FF3061074FF00007AC
:1016300001D40AE07F1C57450DDA8742FADB1BF81C
:1016400007100029F6D106E07F1C8742FCDB1BF85F
:1016500007100029F8D1DDE90D23A9EB0700814629
:10166000214600F0B1F83044C61904E0DDE90D125E
:101670001BF8010B90477F1EF8D22146484688E0B0
:1016800058F8040BC4F302514FF00A0B032900D1A0
:1016900000B2042900D140B2002802DA40422D21D4
:1016A00002E0210505D52B218DF82410012104E04D
:1016B00006E0E10710D02021F6E708AF089113E01B
:1016C00058F8040BC4F302514FF00A0B032900D160
:1016D00080B2042900D1C0B20021EEE75946FEF7DE
:1016E000B2FD303107F8011D0028F7D1ADEB07003E
:1016F00000F1200B600702D524F4803401E04FF0A4
:10170000010ADA4502DDAAEB0B0000E00020824668
:1017100000EB0B0108980144A9EB01000A90E003DB
:1017200006D4DDE90D2321460A9800F04DF8064461
:101730004FF0000908E009A911F80900DDE90D12D0
:10174000904709F10109761C08998945F3DBE0030C
:101750000CD5DDE90D2321460A9800F035F8064442
:1017600004E0DDE90D1230209047761CBAF100014B
:10177000AAF1010AF5DC05E0DDE90D1217F8010B0D
:101780009047761CBBF10001ABF1010BF4DC0A9829
:101790002146DDE90D2300F005F806446D1C97E6AF
:1017A000092801002DE9F041044600251E46174690
:1017B000880404D405E039462020B0476D1C641E1F
:1017C000F9D52846BDE8F0812DE9F0410446002511
:1017D0001E469046C80301D5302700E02027880424
:1017E00004D505E041463846B0476D1C641EF9D566
:1017F0002846BDE8F0810A68531C0B6010707047E2
:1018000008B5FFF7E3F8FFF709FD2A48002401684F
:1018100041F080010160016801F0800100910168E0
:1018200041F001010160016801F0010100910168CE
:1018300041F002010160006800F002000090FFF733
:10184000BDFC1E481C4901604FF4E131C0E90114A0
:101850000C21C460C0E904418461C461FFF7E8FB66
:1018600016484838FEF722FF154C4FF47A75134896
:101870004838FEF71BFF114864214838FEF7C4FEC4
:101880000E484838FEF762FE20800C484838FEF7C4
:1018900083FF0A4822880BA17C38FFF7D7FD074950
:1018A00082B264237C390548FFF72AFC2846FEF7FC
:1018B00091FFDCE7303802400048004090000020F3
:1018C0000000002025640A00000000000000000065
:1018D00001020304060708090000000001020304D6
:1018E00000190008000000201400000094140008F3
:1018F0001419000814000020BC040000A4140008FF
:1019000000000000010000001000000000000000C6
:041910000024F400BB
:040000050800018965
:00000001FF
